:020000040800F2
:10000000100400200D020008150200081702000865
:10001000190200081B0200081D0200080000000071
:10002000000000000000000000000000370C000885
:100030002102000800000000330C0008390C000801
:1000400027020008270200082702000827020008EC
:1000500027020008350C00082702000827020008C4
:1000600027020008270200082702000827020008CC
:1000700027020008270200082702000827020008BC
:1000800027020008270200082702000827020008AC
:10009000270200082702000827020008270200089C
:1000A000270200082702000827020008270200088C
:1000B000270200082702000827020008270200087C
:1000C000270200082702000827020008270200086C
:1000D000270200082702000827020008270200085C
:1000E000270200082702000827020008270200084C
:1000F000270200082702000827020008270200083C
:10010000270200082702000827020008270200082B
:10011000270200082702000827020008270200081B
:10012000270200082702000827020008270200080B
:1001300027020008270200082702000827020008FB
:1001400027020008270200082702000827020008EB
:1001500027020008270200082702000827020008DB
:1001600027020008270200082702000827020008CB
:1001700027020008270200082702000800000000EC
:1001800027020008270200082702000827020008AB
:10019000270200082702000827020008270200089B
:1001A000270200082702000827020008270200088B
:1001B000270200082702000827020008270200087B
:1001C000270200082702000800000000270200089C
:1001D000270200082702000827020008270200085B
:1001E000270200082702000827020008270200084B
:1001F0002702000827020008DFF80CD000F068F89A
:1002000000480047610D00081004002006488047A0
:1002100006480047FEE7FEE7FEE7FEE7FEE7FEE7EB
:10022000FEE7FEE7FEE7FEE7ED0C0008F901000837
:100230002DE9F05F0546002092469B46884606461B
:10024000814640241BE0284641464746224600F0AE
:100250002FF853465A46C01A914110D311461846FA
:10026000224600F016F82D1A67EB01084F46224689
:100270000120002100F00DF817EB00094E41201E6F
:10028000A4F10104DFDC484631462A464346BDE876
:10029000F09F202A04DB203A00FA02F10020704788
:1002A0009140C2F1200320FA03F3194390407047B4
:1002B000202A04DB203A21FA02F00021704721FABB
:1002C00002F3D040C2F12002914008431946704722
:1002D000064C074D06E0E06840F0010394E8070093
:1002E00098471034AC42F6D3FFF78AFFF80D0008A8
:1002F000180E000870B5044600F004F90546601CAD
:1003000002D004480078044400F0FCF8401BA042EE
:10031000FAD370BD000000202DE9F84FDFF89CE112
:1003200000224FF001084FF0030B4FF00F0A00BFFF
:100330000B6808FA02F42340A34271D14D68022DE4
:1003400001D0122D0FD1D5080E69570700EB850596
:10035000A9462D6AFF0E0AFA07FCBE4025EA0C05E5
:100360002E43C9F820600F79550006680BFA05FC8A
:1003700007F0030726EA0C06AF40374307604E68D4
:10038000012E05D0022E03D0112E01D0122E0ED137
:100390008668CF6826EA0C06AF4037438760466818
:1003A0000F79A643C7F30017974037434760C468E7
:1003B0008E6824EA0C04AE402643C6604C68E40014
:1003C00075D53F4C256845F480452560246822F0AA
:1003D0000306950704F4804400943A4C2D0F2644FC
:1003E000D6F80848DFF8E0C00AFA05F7604524EAC5
:1003F000070401D100272EE0344FB84201D1012774
:1004000029E0334FB84201D1022724E0314FB842EE
:1004100001D103271FE0304FB84202D104271AE070
:1004200045E02E4FB84201D1052714E02C4FB842C9
:1004300001D106270FE02B4FB84201D107270AE070
:10044000294FB84201D1082705E0284FB84201D111
:10045000092700E00A27AF4027437546C6F8087809
:100460004E68DEF80040F60324EA030400D51C437E
:10047000124E2C60361D4D683468AD0324EA030427
:1004800000D51C430D4F346008374D683C68ED02C1
:1004900024EA030400D51C43084D3C600C354E682B
:1004A0002C68B60224EA030400D51C432C60521CBD
:1004B000102AFFF43DAFBDE8F88F0000003C01407A
:1004C0004438024000300140000002400004024075
:1004D00000080240000C02400010024000140240DC
:1004E00000180240001C024000200240002402408C
:1004F00042694A40426170470AB18161704709040C
:10050000FBE7000001488068704700000000002001
:100510000248816802781144816070470000002021
:10052000032010B500F09EF8002000F005F800F060
:1005300023F8002010BD000070B50D4D04464FF4A7
:100540007A700C4A29781268B0FBF1F0B2FBF0F037
:1005500000F047FB48B9102C07D200222146501E5C
:1005600000F060F800206C6070BD012070BD0000DC
:10057000000000200C000020234808B5016841F06D
:1005800080510160006800F0805000901E48001DFE
:10059000016841F480410160006800F480400090EF
:1005A000032000F05FF800226FF00B00114600F00E
:1005B00039F800226FF00A00114600F033F80022EB
:1005C0006FF00900114600F02DF80022501F11466F
:1005D00000F028F80022101F114600F023F8002236
:1005E000901E114600F01EF80022501E114600F029
:1005F00019F800220520114600F014F8BDE8084063
:10060000052000F003B8000040380240410900F026
:100610001F028900012001F1E0219040C1F8000192
:10062000704700000E4BF0B41B680D46C3F3022365
:10063000C3F10706042E00D90426191D072901D28B
:10064000002300E0DB1E012404FA06F19C40491E51
:100650002940641E994014402143F0BC00F0D8BAF0
:100660000CED00E0064900F0070210B54FF6FF045C
:100670000868044B204040EA02201843086010BD7F
:100680000CED00E00000FA051848F8B5016841F0EB
:10069000805101600068164C00F080500090206886
:1006A00040F480302060FFF72DFF4FF47A76054646
:1006B00005E000BFFFF726FF401BB0420FD860687F
:1006C000C003F7D5206840F400302060FFF71AFF20
:1006D000054606E0FFF716FF401BB04201D9032094
:1006E000F8BD60688003F5D50020F8BD40380240B1
:1006F000007000402DE9F04705000F4663D0444EDE
:10070000306800F00F00B84209D2306820F00F00C6
:1007100038433060306800F00F00B84253D1286889
:100720003C4C810712D5400703D5206840F4E050C7
:1007300020602878000703D5206840F460402060DE
:10074000A968206820F0F000084320602878C007DE
:100750002AD0304968680839012810D00968022871
:1007600010D0890700292EDA216821F00301014306
:100770002160FFF7C7FE804641F288390DE0096825
:100780008903EFE78901EDE7FFF7BCFEA0EB080165
:10079000494502D90320BDE8F0876868216801F067
:1007A0000C01B1EB800FEFD1306800F00F00B842C0
:1007B0000BD9306820F00F0038433060306800F00B
:1007C0000F00B84201D00120E5E72878400705D5A1
:1007D000E968206820F4E05008432060287800078A
:1007E00006D52869216821F4604141EAC0002060F3
:1007F00000F01CF82168084AC1F30311515CC8409D
:10080000064908600020FFF797FE0020C3E70000BC
:10081000003C024008380240E80D00080C000020AF
:1008200001480068704700000C000020154910B511
:100830001548096811F00C0213D04110042A0FD09A
:10084000082A0ED10F4C241F2268236802F03F02B1
:100850005B0207D52068C0F38810A0FB010106E009
:10086000084610BD2168C1F38811A1FB00010023D7
:10087000FFF7DEFC2168C1F30141491C4900B0FBD0
:10088000F1F010BD083802400024F4002DE9F84FC3
:1008900005004FF000076ED02878DFF82093A9F10B
:1008A000040AC007AAF104044CD0D9F80010484645
:1008B000C1F38101012908D00068C0F3810002283A
:1008C0000AD1DAF80000400206D52068800339D545
:1008D00068680028DFD035E06868B0F5803F0BD04D
:1008E00010B1B0F5A02F11D0206820F48030206026
:1008F000206820F4802002E0206840F480302060EE
:10090000686890B1FFF7FEFD06460AE0206840F4F3
:1009100080202060F0E700BFFFF7F4FD801B642813
:1009200072D820688003F7D50CE0FFF7EBFD064690
:1009300005E000BFFFF7E6FD801B6428F0D82068C3
:100940008003F7D42878800742D5D9F800104846AC
:1009500011F00C0F08D00068C0F3810002280BD101
:10096000DAF80000400207D42068800718D5E8684C
:10097000012800D114E01EE1E8680028206817D0A3
:1009800040F001002060FFF7BDFD064605E000BF16
:10099000FFF7B8FD801B0228C2D820688007F7D572
:1009A0002869216821F0F80141EAC00020600FE0C9
:1009B00020F001002060FFF7A5FD064605E000BF1E
:1009C000FFF7A0FD801B02281ED820688007F7D4FF
:1009D0002878000729D5794869696C300029804654
:1009E000016812D041F001010160FFF78BFD06465E
:1009F00005E000BFFFF786FD801B022804D8D8F869
:100A000000008007F6D510E089E021F001010160C7
:100A1000FFF778FD064604E0FFF774FD801B02280F
:100A20007DD8D8F800008007F6D4287840076BD529
:100A3000DFF8888108F13808D8F80000C0000BD42E
:100A4000D8F8001041F08051C8F80010D8F8000024
:100A5000012700F08050009059480168C90512D460
:100A60000168834641F480710160FFF74BFD064643
:100A700005E000BFFFF746FD801B64284FD8DBF878
:100A80000000C005F6D54D4EA868683601280AD08A
:100A900008B1052811D0306820F0010030603068BE
:100AA00020F0040002E0306840F001003060A868E7
:100AB000A0B1FFF727FD83460CE0306840F004004A
:100AC0003060F0E7FFF71EFDA0EB0B0141F288302C
:100AD000814268D830688007F4D50EE0FFF712FD38
:100AE000834607E0FFF70EFDA0EB0B0141F28830D3
:100AF000814258D830688007F4D42FB1D8F800105C
:100B000021F08051C8F80010A869E0B3D9F80010AE
:100B1000C1F3810102294ED00228206800E042E0A2
:100B200020F08070206003D0FFF7ECFC05463DE02C
:100B3000FFF7E8FC064604E0FFF7E4FC801B022810
:100B400031D820688001F7D4D5E90921DFF874C0D5
:100B5000D5E9070695F830304F0895F82C1030434A
:100B60000CEB074545EA8212104340EA016040EA77
:100B70000370CAF80000206840F080702060FFF722
:100B8000C1FC054605E014E0FFF7BCFC401B022851
:100B900009D820688001F7D50BE000BFFFF7B2FC51
:100BA000401B022802D90320BDE8F88F206880018D
:100BB000F4D40020F8E70120F6E7000008380240EE
:100BC000007000400000FFFF04284FF0E0200169A2
:100BD00003D021F004010161704741F00401FAE7FC
:100BE0007047401EB0F1807F10B501D3012010BDC9
:100BF0004FF0E02460610F21601700F009F8002039
:100C0000A0610721216110BD10B5FFF7E9FF10BDFC
:100C1000090700284FEA116106DA00F00F0000F121
:100C2000E02080F8141D704700F1E02080F80014E7
:100C3000704770477047704710B5FFF769FCBDE813
:100C40001040FFF7E1BF0000264830B593B00168BF
:100C500041F080510160006800F0805012902248FD
:100C6000016841F44041016000680224D82500F485
:100C7000404012900420012103058203CDE90805BC
:100C8000CDE90643CDE90A40CDE900126846FFF7F9
:100C9000FDFD00B1FEE7FFF7F7FC00B1FEE70FAD89
:100CA00000214FF4A0524FF4805385E80E000F202E
:100CB000CDE90D0407210DA8FFF71CFD00B1FEE7EB
:100CC000FFF7AEFD4FF47A71B0FBF1F0FFF789FF4B
:100CD0000420FFF779FF0022501E1146FFF7A2FC07
:100CE00013B030BD4038024000700040104A30B5AB
:100CF0001048146800210F4B44F47004146008334A
:100D000005680D4A0D4C45F0010505601960036842
:100D1000051D1340074A03600C322C600568E3058B
:100D2000034C25F480250560803C1160236030BDB4
:100D300088ED00E000380240FFFFF6FE103000248E
:100D400002E008C8121F08C1002AFAD17047704794
:100D5000002001E001C1121F002AFBD170470000F2
:100D600086B0FFF7DDFBFFF76FFF1D48016841F01C
:100D700080010160016801F080010591016841F086
:100D800002010160006844F28105164C002200F067
:100D90000200294605902046FFF7AEFB0020009593
:100DA0000121CDE90110694603902046FFF7B4FA0E
:100DB0004FF4804520460121FFF79AFB6420FFF79E
:100DC00099FA80212046FFF793FB6420FFF792FAFF
:100DD00029462046FFF78CFB6420FFF78BFAE9E7F2
:100DE0003038024000040240000000000000000013
:100DF0000102030406070809180E0008000000207D
:100E000010000000400D0008280E0008100000200F
:100E100000040000500D0008010000001000000058
:080E2000000000000024F400B2
:04000005080001F9F5
:00000001FF
